8=FIX.4.4|9=70|35=A|34=1|49=EXECUTOR|52=20220114-21:25:13.720|56=CLIENT1|98=0|108=30|10=079|8=FIX.4.4|9=67|35=2|34=2|49=EXECUTOR|52=20220114-21:25:13.727|56=CLIENT1|7=1|16=0|10=176|8=FIX.4.4|9=58|35=0|34=3|49=EXECUTOR|52=20220114-21:25:44.404|56=CLIENT1|10=048|8=FIX.4.4|9=67|35=1|34=4|49=EXECUTOR|52=20220114-21:25:50.455|56=CLIENT1|112=TEST|10=071|8=FIX.4.4|9=70|35=A|34=5|49=EXECUTOR|52=20220114-21:26:58.104|56=CLIENT1|98=0|108=30|10=089|8=FIX.4.4|9=67|35=2|34=6|49=EXECUTOR|52=20220114-21:26:58.109|56=CLIENT1|7=1|16=0|10=184|8=FIX.4.4|9=58|35=0|34=7|49=EXECUTOR|52=20220114-21:27:28.305|56=CLIENT1|10=056|8=FIX.4.4|9=70|35=A|34=8|49=EXECUTOR|52=20220114-21:28:03.639|56=CLIENT1|98=0|108=30|10=097|8=FIX.4.4|9=67|35=2|34=9|49=EXECUTOR|52=20220114-21:28:03.642|56=CLIENT1|7=1|16=0|10=181|8=FIX.4.4|9=97|35=3|34=10|49=EXECUTOR|52=20220114-21:28:09.387|56=CLIENT1|45=59|58=Invalid MsgType|372=B|373=11|10=059|8=FIX.4.4|9=117|35=3|34=11|49=EXECUTOR|52=20220114-21:28:11.788|56=CLIENT1|45=60|58=Tag specified without a value|371=11|372=9|373=4|10=137|8=FIX.4.4|9=68|35=1|34=12|49=EXECUTOR|52=20220114-21:28:40.491|56=CLIENT1|112=TEST|10=121|8=FIX.4.4|9=71|35=A|34=13|49=EXECUTOR|52=20220114-21:30:08.975|56=CLIENT1|98=0|108=30|10=143|8=FIX.4.4|9=68|35=2|34=14|49=EXECUTOR|52=20220114-21:30:08.983|56=CLIENT1|7=1|16=0|10=232|8=FIX.4.4|9=59|35=0|34=15|49=EXECUTOR|52=20220114-21:30:39.730|56=CLIENT1|10=102|8=FIX.4.4|9=68|35=1|34=16|49=EXECUTOR|52=20220114-21:30:45.792|56=CLIENT1|112=TEST|10=127|